{
    "contractName": "FundMe",
    "abi": [
        {
            "inputs": [
                {
                    "internalType": "address",
                    "name": "priceFeed",
                    "type": "address"
                }
            ],
            "stateMutability": "nonpayable",
            "type": "constructor"
        },
        {
            "inputs": [],
            "name": "FundMe__NotOwner",
            "type": "error"
        },
        {
            "stateMutability": "payable",
            "type": "fallback"
        },
        {
            "inputs": [],
            "name": "MINIMUM_USD",
            "outputs": [
                {
                    "internalType": "uint256",
                    "name": "",
                    "type": "uint256"
                }
            ],
            "stateMutability": "view",
            "type": "function"
        },
        {
            "inputs": [],
            "name": "fund",
            "outputs": [],
            "stateMutability": "payable",
            "type": "function"
        },
        {
            "inputs": [
                {
                    "internalType": "address",
                    "name": "fundingAddress",
                    "type": "address"
                }
            ],
            "name": "getAddressToAmountFunded",
            "outputs": [
                {
                    "internalType": "uint256",
                    "name": "",
                    "type": "uint256"
                }
            ],
            "stateMutability": "view",
            "type": "function"
        },
        {
            "inputs": [
                {
                    "internalType": "uint256",
                    "name": "index",
                    "type": "uint256"
                }
            ],
            "name": "getFunder",
            "outputs": [
                {
                    "internalType": "address",
                    "name": "",
                    "type": "address"
                }
            ],
            "stateMutability": "view",
            "type": "function"
        },
        {
            "inputs": [],
            "name": "getVersion",
            "outputs": [
                {
                    "internalType": "uint256",
                    "name": "",
                    "type": "uint256"
                }
            ],
            "stateMutability": "view",
            "type": "function"
        },
        {
            "inputs": [],
            "name": "i_owner",
            "outputs": [
                {
                    "internalType": "address",
                    "name": "",
                    "type": "address"
                }
            ],
            "stateMutability": "view",
            "type": "function"
        },
        {
            "inputs": [
                {
                    "internalType": "address",
                    "name": "",
                    "type": "address"
                }
            ],
            "name": "s_addressToAmountFunded",
            "outputs": [
                {
                    "internalType": "uint256",
                    "name": "",
                    "type": "uint256"
                }
            ],
            "stateMutability": "view",
            "type": "function"
        },
        {
            "inputs": [
                {
                    "internalType": "uint256",
                    "name": "",
                    "type": "uint256"
                }
            ],
            "name": "s_funders",
            "outputs": [
                {
                    "internalType": "address",
                    "name": "",
                    "type": "address"
                }
            ],
            "stateMutability": "view",
            "type": "function"
        },
        {
            "inputs": [],
            "name": "withdraw",
            "outputs": [],
            "stateMutability": "nonpayable",
            "type": "function"
        },
        {
            "stateMutability": "payable",
            "type": "receive"
        }
    ],
    "bytecode": "60a034608357601f61072e38819003918201601f19168301916001600160401b03831184841017608757808492602094604052833981010312608357516001600160a01b0381169081900360835733608052600280546001600160a01b031916919091179055604051610692908161009c823960805181818160ac01526101860152f35b5f80fd5b634e487b7160e01b5f52604160045260245ffdfe6080806040526004361015610028575b5036156100205761001e6104c8565b005b61001e6104c8565b5f3560e01c9081630343fb2514610442575080630d8e6e2c146103b65780631bf6132d1461037b5780633ccfd60b1461017457806354861af71461014b5780636b69a59214610129578063b60d428814610116578063d7b4750c146100df5763dba6335f14610097575f61000f565b346100db575f3660031901126100db576040517f00000000000000000000000000000000000000000000000000000000000000006001600160a01b03168152602090f35b5f80fd5b346100db5760203660031901126100db5760206100fd60043561047a565b905460405160039290921b1c6001600160a01b03168152f35b5f3660031901126100db5761001e6104c8565b346100db575f3660031901126100db576020604051674563918244f400008152f35b346100db5760203660031901126100db576004356001548110156100db576100fd60209161047a565b346100db575f3660031901126100db577f00000000000000000000000000000000000000000000000000000000000000006001600160a01b0316330361036c575f5b6001548110156101ec57806101cc60019261047a565b838060a01b0391549060031b1c165f525f6020525f6040812055016101b6565b60206040516101fb82826104a6565b5f81525f36813780519067ffffffffffffffff82116102b757600160401b82116102b75782906001548360015580841061030b575b500160015f525f5b8281106102d057835f80808047335af13d156102cb573d67ffffffffffffffff81116102b75760405190610275601f8201601f19168501836104a6565b81525f833d92013e5b1561028557005b6064906040519062461bcd60e51b82526004820152600b60248201526a10d85b1b0819985a5b195960aa1b6044820152fd5b634e487b7160e01b5f52604160045260245ffd5b61027e565b81516001600160a01b03167fb10e2d527612073b26eecdfd717e6a320cf44b4afac2b0732d9fcbe2b7fa0cf682015590830190600101610238565b7fb10e2d527612073b26eecdfd717e6a320cf44b4afac2b0732d9fcbe2b7fa0cf601837fb10e2d527612073b26eecdfd717e6a320cf44b4afac2b0732d9fcbe2b7fa0cf6015b81811061035e5750610230565b5f8155859350600101610351565b63579610db60e01b5f5260045ffd5b346100db5760203660031901126100db576004356001600160a01b038116908190036100db575f525f602052602060405f2054604051908152f35b346100db575f3660031901126100db5760025460405163054fd4d560e41b815290602090829060049082906001600160a01b03165afa8015610437575f90610404575b602090604051908152f35b506020813d60201161042f575b8161041e602093836104a6565b810103126100db57602090516103f9565b3d9150610411565b6040513d5f823e3d90fd5b346100db5760203660031901126100db576004356001600160a01b03811691908290036100db576020915f525f825260405f20548152f35b6001548110156104925760015f5260205f2001905f90565b634e487b7160e01b5f52603260045260245ffd5b90601f8019910116810190811067ffffffffffffffff8211176102b757604052565b600254604051633fabe5a360e21b81529060a090829060049082906001600160a01b03165afa908115610437575f916105f8575b506402540be4008102908082056402540be400148115171561059f576402540be400903402029080820434149015171561059f57670de0b6b3a7640000674563918244f400009104106105b357335f525f60205260405f2080549034820180921161059f5755600154600160401b8110156102b757806001610581920160015561047a565b81546001600160a01b0360039290921b91821b19163390911b179055565b634e487b7160e01b5f52601160045260245ffd5b60405162461bcd60e51b815260206004820152601b60248201527f596f75206e65656420746f207370656e64206d6f7265204554482100000000006044820152606490fd5b905060a0813d60a01161063d575b8161061360a093836104a6565b810103126100db5761062481610645565b50610636608060208301519201610645565b505f6104fc565b3d9150610606565b519069ffffffffffffffffffff821682036100db5756fea2646970667358221220541e85e13372843968e8ca4e477a255e2ad65f3391b38ce22f8a1edf0427174264736f6c634300081e0033",
    "sourcePath": "/home/shahil_27/foundry-projects/foundry-fund-me-f25/src/FundMe.sol",
    "compiler": {
        "name": "solc",
        "version": "0.8.30+commit.73712a01"
    },
    "functionHashes": {
        "MINIMUM_USD()": "6b69a592",
        "fund()": "b60d4288",
        "getAddressToAmountFunded(address)": "0343fb25",
        "getFunder(uint256)": "d7b4750c",
        "getVersion()": "0d8e6e2c",
        "i_owner()": "dba6335f",
        "s_addressToAmountFunded(address)": "1bf6132d",
        "s_funders(uint256)": "54861af7",
        "withdraw()": "3ccfd60b"
    },
    "gasEstimates": {
        "creation": {
            "codeDepositCost": "336400",
            "executionCost": "infinite",
            "totalCost": "infinite"
        },
        "external": {
            "": "infinite",
            "MINIMUM_USD()": "263",
            "fund()": "infinite",
            "getAddressToAmountFunded(address)": "2361",
            "getFunder(uint256)": "4659",
            "getVersion()": "infinite",
            "i_owner()": "infinite",
            "s_addressToAmountFunded(address)": "2410",
            "s_funders(uint256)": "6721",
            "withdraw()": "infinite"
        }
    }
}